:100FDD0000000000003E5149453E00427F40004266
:100FED00615149462141454B311814127F10274557
:100FFD004545393C4A49493001710905033649498E
:10100D004936064949291E00363600007E11111158
:10101D007E3E414141227F494949417F0814224189
:10102D003E4141413E7F0919294646494949310111
:04103D00017F01012D
:1010DB00C100C1010226000002230000022800000B
:1010EB0001254006347E7EFFFF7E7E063A7E7E81A2
:1010FB00817E7E014B0A01220A0A2A0001000A00A6
:05110B006403E8271059
:10113300741E2509F58274103508F583E493FFC204
:0111430002A9
:0F1144008F90A202B392A0C2A1D2A200C2A22297
:0A116B00EF1FAC0670011E4C600C73
:0C117500750E70AD0E150EED60EC80F7ED
:01118100224B
:10111100D2A5D2A4D2A37F147E0012116BD2027F7A
:101121003E121144D2027FC0121144D2027F3F020B
:02113100114467
:10104100E4FEC2A3D2A4EE44B8FFD202121144D2EC
:10105100027F40121144E4FDC202E4FF1211440D6B
:10106100BD40F5D2A3C2A4EE44B8FFD2021211448E
:10107100D2027F40121144E4FDC202E4FF12114486
:0C1081000DBD40F50EBE08BAD2A4D2A3EB
:01108D002240
:100B1200200050AF24AE23121182D3EF9401EE6471
:100B2200809480502512108E7C007D15120E7A8DD5
:100B32002112108EEF30E0067E007F0180047EFFDE
:100B42007FFF8E238F24D2008045D3E5249400E5D5
:100B5200236480948040067EFF7FFF80287E007F92
:100B62000180221521E521D394005002C200D3E571
:100B7200249400E5236480948040067E007F0180F7
:100B8200047EFF7FFFEF2524F524EE3523F523E4D1
:020B9200FBFA6C
:100B9400C374089BFFE49AFEAC23AD24120E137CAD
:100BA400007D08120E7A8F12744C2BF8A612AF1225
:100BB400EF3395E0FEEF2422F50FE43EF50EC3E596
:100BC4000F9440E50E64809480501EC2A3D2A4EB1F
:100BD40044B8FFD202121144E50F4440FFD202127E
:100BE4001144C2027FFF121144AF12EF3395E0FEAD
:100BF400EF245EF511E43EF510C3E5119480E51091
:100C0400648094805020D2A3C2A4EB44B8FFD202E3
:100C1400121144E51124C04440FFD202121144C20F
:060C2400027FFF121144E3
:0E0C2A000BBB00010AEB64084A6003020B9446
:010C38002299
:100C39001522E522705712108E7C007D14120E7A4F
:100C49008D22E4F50EE50E75F003A42443F8E67051
:100C59003312108E7C007D34120E7AE52424262D61
:100C6900FFE50E75F003A42442F8A607E50E75F01A
:100C790003A42444F8E4F6E50E75F003A42443F82C
:100C890076018009050EE50EC3940340B8E4FEEE33
:0C0C990075F003A42443F8E6607AE4FD43
:100CA500EE75F003A42442F8E6FBED2BF510E433D2
:100CB500F50FC3E5109440E50F648094805006C29B
:100CC500A3D2A4801074C02510F51074FF350FF55C
:100CD5000FD2A3C2A4EE75F003A42444F8E644B8E9
:100CE500FFD202121144E5104440FFD20212114412
:0B0CF500743A2DF8E6FFC20212114411
:100D00000DBD06A1EE75F003A42444F806E6D394C5
:100D100007400AEE75F003A42443F8E4F60EEE64EF
:060D2000036003020C98C1
:010D260022AA
:10115300C2832086057EFF7FFC222085057E007FDB
:081163000422D283E4FEFF2206
:100EBC00E4FDED75F003A42443F8E66049ED75F00C
:100ECC0003A42444F8E6C39407403BED75F003A457
:100EDC002442F8E6FB7A002406F582EA33F583C354
:100EEC00E5829FEE6480F8E5836480984018EF24D7
:100EFC0006F582E43EF583D3EB9582E5836480F8B6
:100F0C007480985001220DBD03A8AD53ED3395E0CC
:100F1C00FCED2422FBE43CFAC3EF9BEA6480F8EE80
:100F2C00648098401BED245EFDE43CFCEF2406FF3E
:100F3C00E43EFED3EF9DEC6480F8EE6480984003B1
:040F4C00D38001C38A
:010F5000227E
:100D2700EF2525F525FF3395E0FEEF24FDFFEE3493
:100D3700FFAD07FCED2406FFE43CFED3EF9440EE45
:100D470064809480502AC2A3D2A4D2027FBF12111A
:100D570044AF05EF4440FFD202121144E4F9743462
:100D670029F8E6FFC20212114409B906F1020E0979
:100D7700C3ED9440EC648094804029D2A3C2A4D2EE
:100D8700027FBF121144ED24C04440FFD20212116A
:100D970044E4F9743429F8E6FFC20212114409B990
:100DA70006F1805EC2A3D2A4D2027FBF121144ED26
:100DB7004440FFD202121144E4F9C374409DFFE49A
:100DC7009CFEE9C39FEE6480F8748098500E7434DB
:100DD70029F8E6FFC2021211440980DED2A3C2A499
:100DE700D2027FBF121144D2027F40121144E9C3DD
:100DF7009406500E743429F8E6FFC2021211440912
:0B0E070080ECAF05AE04120EBC92019F
:010E120022BD
:10080000121111121041C2A3D2A4D2027FBB121145
:1008100044D2027F40121144E4F508F509743725EB
:1008200009F582741012113B0509E50970020508EB
:10083000C39405E5086480948040E2E4F508F50976
:10084000743C2509F582741012113B0509E5097005
:10085000020508C39405E5086480948040E2E4F54D
:1008600008F509742D2509F582741012113B05094C
:10087000E50970020508C39405E50864809480408A
:10088000E2E4F508F5091211330509E509700205DE
:1008900008C39405E5086480948040EAE4F508F50F
:1008A0000974282509F582741012113B0509E50920
:1008B00070020508C39405E5086480948040E2D284
:1008C000027FBC121144D2027F40121144E4F508A9
:1008D000F5091211330509E50970020508C39405ED
:1008E000E5086480948040EAE4F508F50974192568
:1008F00009F582741012113B0509E509700205081B
:10090000C39405E5086480948040E2E4F508F509A5
:1009100074322509F582741012113B0509E509703E
:10092000020508C39405E5086480948040E27FD006
:100930007E0712116B200124121041120B12120CAF
:10094000391211538E288F29120D277F2C7E011208
:10095000116B0527E52770DD052680D9121041C2ED
:10096000A3D2A4D2027FBC121144D2027F5E121124
:1009700044E4F508F50974372509F582741012115D
:100980003B0509E50970020508C39405E508648084
:10099000948040E2E4F508F5091211330509E509F0
:1009A00070020508C39405E5086480948040EAE479
:1009B000F508F509742D2509F582741012113B050F
:1009C00009E50970020508C39405E5086480948070
:1009D00040E2E4F508F50974322509F58274101235
:1009E000113B0509E50970020508C39405E5086493
:1009F00080948040E2E4F508F50974232509F58226
:100A0000741012113B0509E50970020508C394052D
:100A1000E5086480948040E2E4F508F50974142543
:100A200009F582741012113B0509E50970020508E9
:100A3000C39405E5086480948040E285260A8527F2
:100A40000BAF0BAE0AE4F50CF50DD3EF9400EE649A
:100A500080948040117C007D0A120E7A050DE50D10
:100A600070E8050C80E4C2A3D2A4D2027FBD1211AB
:100A700044E4FBFAC3EB950DE50C6480F8EA64806E
:100A8000984003020B05EB75F006A4241E4440FFBA
:100A9000D202121144E4F508F509C3E50D9BFFEFFE
:100AA00025E02428F8E6FC08E6FDAE0AAF0B120E9E
:100AB00025900FE275F005EF120EB0EE75F005A46B
:100AC0002583F583E5822509F582E58312113B052F
:100AD00009E50970020508C39405E508648094805F
:100AE00040B8C3E50D9BFFEF25E02428F8E6FC089D
:100AF000E6FDAE0AAF0B120E258C0A8D0B0BBB0068
:100B0000010A020A747FE87E0312116B121041027F
:020B1000095C7E
:03000000020F519B
:0C0F5100787FE4F6D8FD758153020F98FC
:100E1300EF8DF0A4A8F0CF8CF0A428CE8DF0A42EF3
:020E2300FE22AD
:100E2500BC000BBE0029EF8DF084FFADF022E4CCB1
:100E3500F875F008EF2FFFEE33FEEC33FCEE9DEC7A
:100E4500984005FCEE9DFE0FD5F0E9E4CEFD22EDC0
:100E5500F8F5F0EE8420D21CFEADF075F008EF2F0A
:100E6500FFED33FD4007985006D5F0F222C398FDFB
:050E75000FD5F0EA2298
:100E7A00C2D5EC30E709B2D5E4C39DFDE49CFCEE93
:100E8A0030E715B2D5E4C39FFFE49EFE120E25C3D8
:100E9A00E49DFDE49CFC8003120E2530D507C3E4D3
:060EAA009FFFE49EFE2202
:0C0EB000A42582F582E5F03583F583224D
:10108E00AC13AD14AE15AF167810EC4D4E4F700478
:10109E007CA57DA5C3EC13FCED13FDEE13FEEF1343
:1010AE00FF5010EC64CCFCED644CFDEE644EFEEF94
:1010BE0064CEFFD8DF8C138D148E158F16EE547FF1
:0D10CE00FE228E138F1474A5F515F5162261
:0C118200EE30E707C3E49FFFE49EFE226E
:100F5D00020800E493A3F8E493A34003F68001F2A2
:100F6D0008DFF48029E493A3F85407240CC8C33395
:100F7D00C4540F4420C8834004F456800146F6DF64
:100F8D00E4800B01020408102040809010DBE47E09
:100F9D00019360BCA3FF543F30E509541FFEE49359
:100FAD00A360010ECF54C025E060A840B8E493A320
:100FBD00FAE493A3F8E493A3C8C582C8CAC583CA4B
:100FCD00F0A3C8C582C8CAC583CADFE9DEE780BE03
:0111100000DE
:00000001FF
